{
  "contractName": "DegreeSystem",
  "abi": [
    {
      "inputs": [],
      "stateMutability": "nonpayable",
      "type": "constructor"
    },
    {
      "inputs": [],
      "name": "admin",
      "outputs": [
        {
          "internalType": "address",
          "name": "",
          "type": "address"
        }
      ],
      "stateMutability": "view",
      "type": "function",
      "constant": true
    },
    {
      "inputs": [],
      "name": "currentGovSignature",
      "outputs": [
        {
          "internalType": "string",
          "name": "",
          "type": "string"
        }
      ],
      "stateMutability": "view",
      "type": "function",
      "constant": true
    },
    {
      "inputs": [],
      "name": "currentVCSignature",
      "outputs": [
        {
          "internalType": "string",
          "name": "",
          "type": "string"
        }
      ],
      "stateMutability": "view",
      "type": "function",
      "constant": true
    },
    {
      "inputs": [
        {
          "internalType": "string",
          "name": "",
          "type": "string"
        }
      ],
      "name": "issuedDegrees",
      "outputs": [
        {
          "internalType": "bool",
          "name": "issued",
          "type": "bool"
        },
        {
          "internalType": "string",
          "name": "pdfHash",
          "type": "string"
        },
        {
          "internalType": "string",
          "name": "issuedOn",
          "type": "string"
        },
        {
          "internalType": "string",
          "name": "vcSignature",
          "type": "string"
        },
        {
          "internalType": "string",
          "name": "govSignature",
          "type": "string"
        },
        {
          "internalType": "bool",
          "name": "rejected",
          "type": "bool"
        }
      ],
      "stateMutability": "view",
      "type": "function",
      "constant": true
    },
    {
      "inputs": [
        {
          "internalType": "string",
          "name": "",
          "type": "string"
        },
        {
          "internalType": "uint256",
          "name": "",
          "type": "uint256"
        }
      ],
      "name": "studentAttendance",
      "outputs": [
        {
          "internalType": "string",
          "name": "courseId",
          "type": "string"
        },
        {
          "internalType": "string",
          "name": "status",
          "type": "string"
        },
        {
          "internalType": "uint256",
          "name": "timestamp",
          "type": "uint256"
        }
      ],
      "stateMutability": "view",
      "type": "function",
      "constant": true
    },
    {
      "inputs": [
        {
          "internalType": "string",
          "name": "",
          "type": "string"
        },
        {
          "internalType": "uint256",
          "name": "",
          "type": "uint256"
        }
      ],
      "name": "studentFees",
      "outputs": [
        {
          "internalType": "uint8",
          "name": "semester",
          "type": "uint8"
        },
        {
          "internalType": "bool",
          "name": "paid",
          "type": "bool"
        }
      ],
      "stateMutability": "view",
      "type": "function",
      "constant": true
    },
    {
      "inputs": [
        {
          "internalType": "string",
          "name": "",
          "type": "string"
        },
        {
          "internalType": "uint256",
          "name": "",
          "type": "uint256"
        }
      ],
      "name": "studentGrades",
      "outputs": [
        {
          "internalType": "string",
          "name": "courseId",
          "type": "string"
        },
        {
          "internalType": "uint16",
          "name": "totalMarks",
          "type": "uint16"
        },
        {
          "internalType": "uint16",
          "name": "obtainedMarks",
          "type": "uint16"
        },
        {
          "internalType": "uint8",
          "name": "creditHours",
          "type": "uint8"
        },
        {
          "internalType": "string",
          "name": "grade",
          "type": "string"
        },
        {
          "internalType": "uint8",
          "name": "qualityPoints",
          "type": "uint8"
        }
      ],
      "stateMutability": "view",
      "type": "function",
      "constant": true
    },
    {
      "inputs": [
        {
          "internalType": "string",
          "name": "",
          "type": "string"
        }
      ],
      "name": "students",
      "outputs": [
        {
          "internalType": "string",
          "name": "encryptedData",
          "type": "string"
        },
        {
          "internalType": "bool",
          "name": "exists",
          "type": "bool"
        }
      ],
      "stateMutability": "view",
      "type": "function",
      "constant": true
    },
    {
      "inputs": [
        {
          "internalType": "string",
          "name": "studentDID",
          "type": "string"
        },
        {
          "internalType": "string",
          "name": "encryptedData",
          "type": "string"
        }
      ],
      "name": "registerStudent",
      "outputs": [],
      "stateMutability": "nonpayable",
      "type": "function"
    },
    {
      "inputs": [
        {
          "internalType": "string",
          "name": "studentDID",
          "type": "string"
        },
        {
          "internalType": "uint8",
          "name": "semester",
          "type": "uint8"
        }
      ],
      "name": "recordFee",
      "outputs": [],
      "stateMutability": "nonpayable",
      "type": "function"
    },
    {
      "inputs": [
        {
          "internalType": "string",
          "name": "studentDID",
          "type": "string"
        },
        {
          "internalType": "string",
          "name": "courseId",
          "type": "string"
        },
        {
          "internalType": "string",
          "name": "status",
          "type": "string"
        }
      ],
      "name": "markAttendance",
      "outputs": [],
      "stateMutability": "nonpayable",
      "type": "function"
    },
    {
      "inputs": [
        {
          "internalType": "string",
          "name": "studentDID",
          "type": "string"
        },
        {
          "internalType": "string",
          "name": "courseId",
          "type": "string"
        },
        {
          "internalType": "uint16",
          "name": "totalMarks",
          "type": "uint16"
        },
        {
          "internalType": "uint16",
          "name": "obtainedMarks",
          "type": "uint16"
        },
        {
          "internalType": "uint8",
          "name": "creditHours",
          "type": "uint8"
        },
        {
          "internalType": "string",
          "name": "grade",
          "type": "string"
        },
        {
          "internalType": "uint8",
          "name": "qualityPoints",
          "type": "uint8"
        }
      ],
      "name": "submitGrade",
      "outputs": [],
      "stateMutability": "nonpayable",
      "type": "function"
    },
    {
      "inputs": [
        {
          "internalType": "string",
          "name": "vc",
          "type": "string"
        },
        {
          "internalType": "string",
          "name": "gov",
          "type": "string"
        }
      ],
      "name": "storeSignatures",
      "outputs": [],
      "stateMutability": "nonpayable",
      "type": "function"
    },
    {
      "inputs": [
        {
          "internalType": "string",
          "name": "studentDID",
          "type": "string"
        }
      ],
      "name": "rejectDegree",
      "outputs": [],
      "stateMutability": "nonpayable",
      "type": "function"
    },
    {
      "inputs": [
        {
          "internalType": "string",
          "name": "studentDID",
          "type": "string"
        },
        {
          "internalType": "string",
          "name": "pdfHash",
          "type": "string"
        },
        {
          "internalType": "string",
          "name": "date",
          "type": "string"
        }
      ],
      "name": "issueDegree",
      "outputs": [],
      "stateMutability": "nonpayable",
      "type": "function"
    },
    {
      "inputs": [
        {
          "internalType": "string",
          "name": "studentDID",
          "type": "string"
        },
        {
          "internalType": "bytes32",
          "name": "degreeHash",
          "type": "bytes32"
        }
      ],
      "name": "storeDegreeHash",
      "outputs": [],
      "stateMutability": "nonpayable",
      "type": "function"
    },
    {
      "inputs": [
        {
          "internalType": "string",
          "name": "studentDID",
          "type": "string"
        }
      ],
      "name": "getDegreeHash",
      "outputs": [
        {
          "internalType": "bytes32",
          "name": "",
          "type": "bytes32"
        }
      ],
      "stateMutability": "view",
      "type": "function",
      "constant": true
    },
    {
      "inputs": [
        {
          "internalType": "string",
          "name": "studentDID",
          "type": "string"
        }
      ],
      "name": "getStudentStatus",
      "outputs": [
        {
          "internalType": "string",
          "name": "",
          "type": "string"
        },
        {
          "internalType": "bool",
          "name": "",
          "type": "bool"
        },
        {
          "components": [
            {
              "internalType": "uint8",
              "name": "semester",
              "type": "uint8"
            },
            {
              "internalType": "bool",
              "name": "paid",
              "type": "bool"
            }
          ],
          "internalType": "struct DegreeSystem.Fee[]",
          "name": "",
          "type": "tuple[]"
        },
        {
          "components": [
            {
              "internalType": "string",
              "name": "courseId",
              "type": "string"
            },
            {
              "internalType": "string",
              "name": "status",
              "type": "string"
            },
            {
              "internalType": "uint256",
              "name": "timestamp",
              "type": "uint256"
            }
          ],
          "internalType": "struct DegreeSystem.Attendance[]",
          "name": "",
          "type": "tuple[]"
        },
        {
          "components": [
            {
              "internalType": "string",
              "name": "courseId",
              "type": "string"
            },
            {
              "internalType": "uint16",
              "name": "totalMarks",
              "type": "uint16"
            },
            {
              "internalType": "uint16",
              "name": "obtainedMarks",
              "type": "uint16"
            },
            {
              "internalType": "uint8",
              "name": "creditHours",
              "type": "uint8"
            },
            {
              "internalType": "string",
              "name": "grade",
              "type": "string"
            },
            {
              "internalType": "uint8",
              "name": "qualityPoints",
              "type": "uint8"
            }
          ],
          "internalType": "struct DegreeSystem.Grade[]",
          "name": "",
          "type": "tuple[]"
        },
        {
          "components": [
            {
              "internalType": "bool",
              "name": "issued",
              "type": "bool"
            },
            {
              "internalType": "string",
              "name": "pdfHash",
              "type": "string"
            },
            {
              "internalType": "string",
              "name": "issuedOn",
              "type": "string"
            },
            {
              "internalType": "string",
              "name": "vcSignature",
              "type": "string"
            },
            {
              "internalType": "string",
              "name": "govSignature",
              "type": "string"
            },
            {
              "internalType": "bool",
              "name": "rejected",
              "type": "bool"
            }
          ],
          "internalType": "struct DegreeSystem.Degree",
          "name": "",
          "type": "tuple"
        },
        {
          "internalType": "bytes32",
          "name": "",
          "type": "bytes32"
        }
      ],
      "stateMutability": "view",
      "type": "function",
      "constant": true
    }
  ],
  "bytecode": "0x608060405234801561000f575f80fd5b503360065f6101000a81548173ffffffffffffffffffffffffffffffffffffffff021916908373ffffffffffffffffffffffffffffffffffffffff1602179055506132a78061005d5f395ff3fe608060405234801561000f575f80fd5b5060043610610114575f3560e01c8063aa2baec1116100a0578063d757c5c01161006f578063d757c5c0146102fa578063e6e9c4ae14610316578063ec542ae414610332578063f52b21e914610363578063f851a4401461039857610114565b8063aa2baec114610261578063b36f44111461027d578063c7ef6bfb146102ad578063d333afcc146102de57610114565b80636520f3d4116100e75780636520f3d4146101b757806375d0b932146101d35780638a2f3684146102095780638f855acd14610225578063986520d11461024357610114565b80630a1b776c146101185780631da62b2714610134578063213c1485146101505780632b82f18914610182575b5f80fd5b610132600480360381019061012d9190612161565b6103b6565b005b61014e6004803603810190610149919061220d565b610521565b005b61016a6004803603810190610165919061229a565b61064e565b6040516101799392919061237d565b60405180910390f35b61019c600480360381019061019791906123c0565b6107b2565b6040516101ae96959493929190612421565b60405180910390f35b6101d160048036038101906101cc91906124cf565b610a32565b005b6101ed60048036038101906101e891906123c0565b610ae8565b6040516102009796959493929190612990565b60405180910390f35b610223600480360381019061021e9190612a4a565b6112f3565b005b61022d6114bc565b60405161023a9190612b3b565b60405180910390f35b61024b611548565b6040516102589190612b3b565b60405180910390f35b61027b60048036038101906102769190612161565b6115d4565b005b610297600480360381019061029291906123c0565b611687565b6040516102a49190612b5b565b60405180910390f35b6102c760048036038101906102c291906123c0565b6116ae565b6040516102d5929190612b74565b60405180910390f35b6102f860048036038101906102f39190612ba2565b611777565b005b610314600480360381019061030f91906123c0565b611b10565b005b610330600480360381019061032b9190612ba2565b611c7e565b005b61034c6004803603810190610347919061229a565b611da7565b60405161035a929190612c55565b60405180910390f35b61037d6004803603810190610378919061229a565b611e0d565b60405161038f96959493929190612c8b565b60405180910390f35b6103a0611fb7565b6040516103ad9190612d37565b60405180910390f35b60065f9054906101000a900473ffffffffffffffffffffffffffffffffffffffff1673ffffffffffffffffffffffffffffffffffffffff163373ffffffffffffffffffffffffffffffffffffffff1614610445576040517f08c379a000000000000000000000000000000000000000000000000000000000815260040161043c90612d9a565b60405180910390fd5b5f826040516104549190612df2565b90815260200160405180910390206001015f9054906101000a900460ff16156104b2576040517f08c379a00000000000000000000000000000000000000000000000000000000081526004016104a990612e52565b60405180910390fd5b6040518060400160405280828152602001600115158152505f836040516104d99190612df2565b90815260200160405180910390205f820151815f0190816104fa919061306a565b506020820151816001015f6101000a81548160ff0219169083151502179055509050505050565b60065f9054906101000a900473ffffffffffffffffffffffffffffffffffffffff1673ffffffffffffffffffffffffffffffffffffffff163373ffffffffffffffffffffffffffffffffffffffff16146105b0576040517f08c379a00000000000000000000000000000000000000000000000000000000081526004016105a790612d9a565b60405180910390fd5b6001826040516105c09190612df2565b908152602001604051809103902060405180604001604052808360ff16815260200160011515815250908060018154018082558091505060019003905f5260205f20015f909190919091505f820151815f015f6101000a81548160ff021916908360ff1602179055506020820151815f0160016101000a81548160ff02191690831515021790555050505050565b600282805160208101820180518482526020830160208501208183528095505050505050818154811061067f575f80fd5b905f5260205f2090600302015f9150915050805f01805461069f90612e9d565b80601f01602080910402602001604051908101604052809291908181526020018280546106cb90612e9d565b80156107165780601f106106ed57610100808354040283529160200191610716565b820191905f5260205f20905b8154815290600101906020018083116106f957829003601f168201915b50505050509080600101805461072b90612e9d565b80601f016020809104026020016040519081016040528092919081815260200182805461075790612e9d565b80156107a25780601f10610779576101008083540402835291602001916107a2565b820191905f5260205f20905b81548152906001019060200180831161078557829003601f168201915b5050505050908060020154905083565b6004818051602081018201805184825260208301602085012081835280955050505050505f91509050805f015f9054906101000a900460ff16908060010180546107fb90612e9d565b80601f016020809104026020016040519081016040528092919081815260200182805461082790612e9d565b80156108725780601f1061084957610100808354040283529160200191610872565b820191905f5260205f20905b81548152906001019060200180831161085557829003601f168201915b50505050509080600201805461088790612e9d565b80601f01602080910402602001604051908101604052809291908181526020018280546108b390612e9d565b80156108fe5780601f106108d5576101008083540402835291602001916108fe565b820191905f5260205f20905b8154815290600101906020018083116108e157829003601f168201915b50505050509080600301805461091390612e9d565b80601f016020809104026020016040519081016040528092919081815260200182805461093f90612e9d565b801561098a5780601f106109615761010080835404028352916020019161098a565b820191905f5260205f20905b81548152906001019060200180831161096d57829003601f168201915b50505050509080600401805461099f90612e9d565b80601f01602080910402602001604051908101604052809291908181526020018280546109cb90612e9d565b8015610a165780601f106109ed57610100808354040283529160200191610a16565b820191905f5260205f20905b8154815290600101906020018083116109f957829003601f168201915b505050505090806005015f9054906101000a900460ff16905086565b60065f9054906101000a900473ffffffffffffffffffffffffffffffffffffffff1673ffffffffffffffffffffffffffffffffffffffff163373ffffffffffffffffffffffffffffffffffffffff1614610ac1576040517f08c379a0000000000000000000000000000000000000000000000000000000008152600401610ab890612d9a565b60405180910390fd5b80600583604051610ad29190612df2565b9081526020016040518091039020819055505050565b60605f6060806060610af8611fdc565b5f8088604051610b089190612df2565b90815260200160405180910390205f015f89604051610b279190612df2565b90815260200160405180910390206001015f9054906101000a900460ff1660018a604051610b559190612df2565b908152602001604051809103902060028b604051610b739190612df2565b908152602001604051809103902060038c604051610b919190612df2565b908152602001604051809103902060048d604051610baf9190612df2565b908152602001604051809103902060058e604051610bcd9190612df2565b908152602001604051809103902054868054610be890612e9d565b80601f0160208091040260200160405190810160405280929190818152602001828054610c1490612e9d565b8015610c5f5780601f10610c3657610100808354040283529160200191610c5f565b820191905f5260205f20905b815481529060010190602001808311610c4257829003601f168201915b5050505050965084805480602002602001604051908101604052809291908181526020015f905b82821015610ce7578382905f5260205f20016040518060400160405290815f82015f9054906101000a900460ff1660ff1660ff1681526020015f820160019054906101000a900460ff16151515158152505081526020019060010190610c86565b50505050945083805480602002602001604051908101604052809291908181526020015f905b82821015610e66578382905f5260205f2090600302016040518060600160405290815f82018054610d3d90612e9d565b80601f0160208091040260200160405190810160405280929190818152602001828054610d6990612e9d565b8015610db45780601f10610d8b57610100808354040283529160200191610db4565b820191905f5260205f20905b815481529060010190602001808311610d9757829003601f168201915b50505050508152602001600182018054610dcd90612e9d565b80601f0160208091040260200160405190810160405280929190818152602001828054610df990612e9d565b8015610e445780601f10610e1b57610100808354040283529160200191610e44565b820191905f5260205f20905b815481529060010190602001808311610e2757829003601f168201915b5050505050815260200160028201548152505081526020019060010190610d0d565b50505050935082805480602002602001604051908101604052809291908181526020015f905b82821015611053578382905f5260205f2090600402016040518060c00160405290815f82018054610ebc90612e9d565b80601f0160208091040260200160405190810160405280929190818152602001828054610ee890612e9d565b8015610f335780601f10610f0a57610100808354040283529160200191610f33565b820191905f5260205f20905b815481529060010190602001808311610f1657829003601f168201915b50505050508152602001600182015f9054906101000a900461ffff1661ffff1661ffff1681526020016001820160029054906101000a900461ffff1661ffff1661ffff1681526020016001820160049054906101000a900460ff1660ff1660ff168152602001600282018054610fa890612e9d565b80601f0160208091040260200160405190810160405280929190818152602001828054610fd490612e9d565b801561101f5780601f10610ff65761010080835404028352916020019161101f565b820191905f5260205f20905b81548152906001019060200180831161100257829003601f168201915b50505050508152602001600382015f9054906101000a900460ff1660ff1660ff168152505081526020019060010190610e8c565b505050509250816040518060c00160405290815f82015f9054906101000a900460ff1615151515815260200160018201805461108e90612e9d565b80601f01602080910402602001604051908101604052809291908181526020018280546110ba90612e9d565b80156111055780601f106110dc57610100808354040283529160200191611105565b820191905f5260205f20905b8154815290600101906020018083116110e857829003601f168201915b5050505050815260200160028201805461111e90612e9d565b80601f016020809104026020016040519081016040528092919081815260200182805461114a90612e9d565b80156111955780601f1061116c57610100808354040283529160200191611195565b820191905f5260205f20905b81548152906001019060200180831161117857829003601f168201915b505050505081526020016003820180546111ae90612e9d565b80601f01602080910402602001604051908101604052809291908181526020018280546111da90612e9d565b80156112255780601f106111fc57610100808354040283529160200191611225565b820191905f5260205f20905b81548152906001019060200180831161120857829003601f168201915b5050505050815260200160048201805461123e90612e9d565b80601f016020809104026020016040519081016040528092919081815260200182805461126a90612e9d565b80156112b55780601f1061128c576101008083540402835291602001916112b5565b820191905f5260205f20905b81548152906001019060200180831161129857829003601f168201915b50505050508152602001600582015f9054906101000a900460ff16151515158152505091509650965096509650965096509650919395979092949650565b60065f9054906101000a900473ffffffffffffffffffffffffffffffffffffffff1673ffffffffffffffffffffffffffffffffffffffff163373ffffffffffffffffffffffffffffffffffffffff1614611382576040517f08c379a000000000000000000000000000000000000000000000000000000000815260040161137990612d9a565b60405180910390fd5b6003876040516113929190612df2565b90815260200160405180910390206040518060c001604052808881526020018761ffff1681526020018661ffff1681526020018560ff1681526020018481526020018360ff16815250908060018154018082558091505060019003905f5260205f2090600402015f909190919091505f820151815f019081611414919061306a565b506020820151816001015f6101000a81548161ffff021916908361ffff16021790555060408201518160010160026101000a81548161ffff021916908361ffff16021790555060608201518160010160046101000a81548160ff021916908360ff1602179055506080820151816002019081611490919061306a565b5060a0820151816003015f6101000a81548160ff021916908360ff160217905550505050505050505050565b600880546114c990612e9d565b80601f01602080910402602001604051908101604052809291908181526020018280546114f590612e9d565b80156115405780601f1061151757610100808354040283529160200191611540565b820191905f5260205f20905b81548152906001019060200180831161152357829003601f168201915b505050505081565b6007805461155590612e9d565b80601f016020809104026020016040519081016040528092919081815260200182805461158190612e9d565b80156115cc5780601f106115a3576101008083540402835291602001916115cc565b820191905f5260205f20905b8154815290600101906020018083116115af57829003601f168201915b505050505081565b60065f9054906101000a900473ffffffffffffffffffffffffffffffffffffffff1673ffffffffffffffffffffffffffffffffffffffff163373ffffffffffffffffffffffffffffffffffffffff1614611663576040517f08c379a000000000000000000000000000000000000000000000000000000000815260040161165a90612d9a565b60405180910390fd5b8160079081611672919061306a565b508060089081611682919061306a565b505050565b5f6005826040516116989190612df2565b9081526020016040518091039020549050919050565b5f818051602081018201805184825260208301602085012081835280955050505050505f91509050805f0180546116e490612e9d565b80601f016020809104026020016040519081016040528092919081815260200182805461171090612e9d565b801561175b5780601f106117325761010080835404028352916020019161175b565b820191905f5260205f20905b81548152906001019060200180831161173e57829003601f168201915b505050505090806001015f9054906101000a900460ff16905082565b60065f9054906101000a900473ffffffffffffffffffffffffffffffffffffffff1673ffffffffffffffffffffffffffffffffffffffff163373ffffffffffffffffffffffffffffffffffffffff1614611806576040517f08c379a00000000000000000000000000000000000000000000000000000000081526004016117fd90612d9a565b60405180910390fd5b5f836040516118159190612df2565b90815260200160405180910390206001015f9054906101000a900460ff16611872576040517f08c379a000000000000000000000000000000000000000000000000000000000815260040161186990613183565b60405180910390fd5b6004836040516118829190612df2565b90815260200160405180910390205f015f9054906101000a900460ff1615806118d557506004836040516118b69190612df2565b90815260200160405180910390206005015f9054906101000a900460ff165b611914576040517f08c379a000000000000000000000000000000000000000000000000000000000815260040161190b906131eb565b60405180910390fd5b6040518060c001604052806001151581526020018381526020018281526020016007805461194190612e9d565b80601f016020809104026020016040519081016040528092919081815260200182805461196d90612e9d565b80156119b85780601f1061198f576101008083540402835291602001916119b8565b820191905f5260205f20905b81548152906001019060200180831161199b57829003601f168201915b50505050508152602001600880546119cf90612e9d565b80601f01602080910402602001604051908101604052809291908181526020018280546119fb90612e9d565b8015611a465780601f10611a1d57610100808354040283529160200191611a46565b820191905f5260205f20905b815481529060010190602001808311611a2957829003601f168201915b505050505081526020015f1515815250600484604051611a669190612df2565b90815260200160405180910390205f820151815f015f6101000a81548160ff0219169083151502179055506020820151816001019081611aa6919061306a565b506040820151816002019081611abc919061306a565b506060820151816003019081611ad2919061306a565b506080820151816004019081611ae8919061306a565b5060a0820151816005015f6101000a81548160ff021916908315150217905550905050505050565b60065f9054906101000a900473ffffffffffffffffffffffffffffffffffffffff1673ffffffffffffffffffffffffffffffffffffffff163373ffffffffffffffffffffffffffffffffffffffff1614611b9f576040517f08c379a0000000000000000000000000000000000000000000000000000000008152600401611b9690612d9a565b60405180910390fd5b600481604051611baf9190612df2565b90815260200160405180910390205f015f9054906101000a900460ff16611c0b576040517f08c379a0000000000000000000000000000000000000000000000000000000008152600401611c0290613253565b60405180910390fd5b6001600482604051611c1d9190612df2565b90815260200160405180910390206005015f6101000a81548160ff0219169083151502179055505f600482604051611c559190612df2565b90815260200160405180910390205f015f6101000a81548160ff02191690831515021790555050565b60065f9054906101000a900473ffffffffffffffffffffffffffffffffffffffff1673ffffffffffffffffffffffffffffffffffffffff163373ffffffffffffffffffffffffffffffffffffffff1614611d0d576040517f08c379a0000000000000000000000000000000000000000000000000000000008152600401611d0490612d9a565b60405180910390fd5b600283604051611d1d9190612df2565b9081526020016040518091039020604051806060016040528084815260200183815260200142815250908060018154018082558091505060019003905f5260205f2090600302015f909190919091505f820151815f019081611d7f919061306a565b506020820151816001019081611d95919061306a565b50604082015181600201555050505050565b6001828051602081018201805184825260208301602085012081835280955050505050508181548110611dd8575f80fd5b905f5260205f20015f9150915050805f015f9054906101000a900460ff1690805f0160019054906101000a900460ff16905082565b6003828051602081018201805184825260208301602085012081835280955050505050508181548110611e3e575f80fd5b905f5260205f2090600402015f9150915050805f018054611e5e90612e9d565b80601f0160208091040260200160405190810160405280929190818152602001828054611e8a90612e9d565b8015611ed55780601f10611eac57610100808354040283529160200191611ed5565b820191905f5260205f20905b815481529060010190602001808311611eb857829003601f168201915b505050505090806001015f9054906101000a900461ffff16908060010160029054906101000a900461ffff16908060010160049054906101000a900460ff1690806002018054611f2490612e9d565b80601f0160208091040260200160405190810160405280929190818152602001828054611f5090612e9d565b8015611f9b5780601f10611f7257610100808354040283529160200191611f9b565b820191905f5260205f20905b815481529060010190602001808311611f7e57829003601f168201915b505050505090806003015f9054906101000a900460ff16905086565b60065f9054906101000a900473ffffffffffffffffffffffffffffffffffffffff1681565b6040518060c001604052805f15158152602001606081526020016060815260200160608152602001606081526020015f151581525090565b5f604051905090565b5f80fd5b5f80fd5b5f80fd5b5f80fd5b5f601f19601f8301169050919050565b7f4e487b71000000000000000000000000000000000000000000000000000000005f52604160045260245ffd5b6120738261202d565b810181811067ffffffffffffffff821117156120925761209161203d565b5b80604052505050565b5f6120a4612014565b90506120b0828261206a565b919050565b5f67ffffffffffffffff8211156120cf576120ce61203d565b5b6120d88261202d565b9050602081019050919050565b828183375f83830152505050565b5f612105612100846120b5565b61209b565b90508281526020810184848401111561212157612120612029565b5b61212c8482856120e5565b509392505050565b5f82601f83011261214857612147612025565b5b81356121588482602086016120f3565b91505092915050565b5f80604083850312156121775761217661201d565b5b5f83013567ffffffffffffffff81111561219457612193612021565b5b6121a085828601612134565b925050602083013567ffffffffffffffff8111156121c1576121c0612021565b5b6121cd85828601612134565b9150509250929050565b5f60ff82169050919050565b6121ec816121d7565b81146121f6575f80fd5b50565b5f81359050612207816121e3565b92915050565b5f80604083850312156122235761222261201d565b5b5f83013567ffffffffffffffff8111156122405761223f612021565b5b61224c85828601612134565b925050602061225d858286016121f9565b9150509250929050565b5f819050919050565b61227981612267565b8114612283575f80fd5b50565b5f8135905061229481612270565b92915050565b5f80604083850312156122b0576122af61201d565b5b5f83013567ffffffffffffffff8111156122cd576122cc612021565b5b6122d985828601612134565b92505060206122ea85828601612286565b9150509250929050565b5f81519050919050565b5f82825260208201905092915050565b5f5b8381101561232b578082015181840152602081019050612310565b5f8484015250505050565b5f612340826122f4565b61234a81856122fe565b935061235a81856020860161230e565b6123638161202d565b840191505092915050565b61237781612267565b82525050565b5f6060820190508181035f8301526123958186612336565b905081810360208301526123a98185612336565b90506123b8604083018461236e565b949350505050565b5f602082840312156123d5576123d461201d565b5b5f82013567ffffffffffffffff8111156123f2576123f1612021565b5b6123fe84828501612134565b91505092915050565b5f8115159050919050565b61241b81612407565b82525050565b5f60c0820190506124345f830189612412565b81810360208301526124468188612336565b9050818103604083015261245a8187612336565b9050818103606083015261246e8186612336565b905081810360808301526124828185612336565b905061249160a0830184612412565b979650505050505050565b5f819050919050565b6124ae8161249c565b81146124b8575f80fd5b50565b5f813590506124c9816124a5565b92915050565b5f80604083850312156124e5576124e461201d565b5b5f83013567ffffffffffffffff81111561250257612501612021565b5b61250e85828601612134565b925050602061251f858286016124bb565b9150509250929050565b5f81519050919050565b5f82825260208201905092915050565b5f819050602082019050919050565b61255b816121d7565b82525050565b61256a81612407565b82525050565b604082015f8201516125845f850182612552565b5060208201516125976020850182612561565b50505050565b5f6125a88383612570565b60408301905092915050565b5f602082019050919050565b5f6125ca82612529565b6125d48185612533565b93506125df83612543565b805f5b8381101561260f5781516125f6888261259d565b9750612601836125b4565b9250506001810190506125e2565b5085935050505092915050565b5f81519050919050565b5f82825260208201905092915050565b5f819050602082019050919050565b5f82825260208201905092915050565b5f61265f826122f4565b6126698185612645565b935061267981856020860161230e565b6126828161202d565b840191505092915050565b61269681612267565b82525050565b5f606083015f8301518482035f8601526126b68282612655565b915050602083015184820360208601526126d08282612655565b91505060408301516126e5604086018261268d565b508091505092915050565b5f6126fb838361269c565b905092915050565b5f602082019050919050565b5f6127198261261c565b6127238185612626565b93508360208202850161273585612636565b805f5b85811015612770578484038952815161275185826126f0565b945061275c83612703565b925060208a01995050600181019050612738565b50829750879550505050505092915050565b5f81519050919050565b5f82825260208201905092915050565b5f819050602082019050919050565b5f61ffff82169050919050565b6127c1816127ab565b82525050565b5f60c083015f8301518482035f8601526127e18282612655565b91505060208301516127f660208601826127b8565b50604083015161280960408601826127b8565b50606083015161281c6060860182612552565b50608083015184820360808601526128348282612655565b91505060a083015161284960a0860182612552565b508091505092915050565b5f61285f83836127c7565b905092915050565b5f602082019050919050565b5f61287d82612782565b612887818561278c565b9350836020820285016128998561279c565b805f5b858110156128d457848403895281516128b58582612854565b94506128c083612867565b925060208a0199505060018101905061289c565b50829750879550505050505092915050565b5f60c083015f8301516128fb5f860182612561565b50602083015184820360208601526129138282612655565b9150506040830151848203604086015261292d8282612655565b915050606083015184820360608601526129478282612655565b915050608083015184820360808601526129618282612655565b91505060a083015161297660a0860182612561565b508091505092915050565b61298a8161249c565b82525050565b5f60e0820190508181035f8301526129a8818a612336565b90506129b76020830189612412565b81810360408301526129c981886125c0565b905081810360608301526129dd818761270f565b905081810360808301526129f18186612873565b905081810360a0830152612a0581856128e6565b9050612a1460c0830184612981565b98975050505050505050565b612a29816127ab565b8114612a33575f80fd5b50565b5f81359050612a4481612a20565b92915050565b5f805f805f805f60e0888a031215612a6557612a6461201d565b5b5f88013567ffffffffffffffff811115612a8257612a81612021565b5b612a8e8a828b01612134565b975050602088013567ffffffffffffffff811115612aaf57612aae612021565b5b612abb8a828b01612134565b9650506040612acc8a828b01612a36565b9550506060612add8a828b01612a36565b9450506080612aee8a828b016121f9565b93505060a088013567ffffffffffffffff811115612b0f57612b0e612021565b5b612b1b8a828b01612134565b92505060c0612b2c8a828b016121f9565b91505092959891949750929550565b5f6020820190508181035f830152612b538184612336565b905092915050565b5f602082019050612b6e5f830184612981565b92915050565b5f6040820190508181035f830152612b8c8185612336565b9050612b9b6020830184612412565b9392505050565b5f805f60608486031215612bb957612bb861201d565b5b5f84013567ffffffffffffffff811115612bd657612bd5612021565b5b612be286828701612134565b935050602084013567ffffffffffffffff811115612c0357612c02612021565b5b612c0f86828701612134565b925050604084013567ffffffffffffffff811115612c3057612c2f612021565b5b612c3c86828701612134565b9150509250925092565b612c4f816121d7565b82525050565b5f604082019050612c685f830185612c46565b612c756020830184612412565b9392505050565b612c85816127ab565b82525050565b5f60c0820190508181035f830152612ca38189612336565b9050612cb26020830188612c7c565b612cbf6040830187612c7c565b612ccc6060830186612c46565b8181036080830152612cde8185612336565b9050612ced60a0830184612c46565b979650505050505050565b5f73ffffffffffffffffffffffffffffffffffffffff82169050919050565b5f612d2182612cf8565b9050919050565b612d3181612d17565b82525050565b5f602082019050612d4a5f830184612d28565b92915050565b7f4f6e6c792061646d696e20616c6c6f77656400000000000000000000000000005f82015250565b5f612d846012836122fe565b9150612d8f82612d50565b602082019050919050565b5f6020820190508181035f830152612db181612d78565b9050919050565b5f81905092915050565b5f612dcc826122f4565b612dd68185612db8565b9350612de681856020860161230e565b80840191505092915050565b5f612dfd8284612dc2565b915081905092915050565b7f416c7265616479207265676973746572656400000000000000000000000000005f82015250565b5f612e3c6012836122fe565b9150612e4782612e08565b602082019050919050565b5f6020820190508181035f830152612e6981612e30565b9050919050565b7f4e487b71000000000000000000000000000000000000000000000000000000005f52602260045260245ffd5b5f6002820490506001821680612eb457607f821691505b602082108103612ec757612ec6612e70565b5b50919050565b5f819050815f5260205f209050919050565b5f6020601f8301049050919050565b5f82821b905092915050565b5f60088302612f297fffffffffffffffffffffffffffffffffffffffffffffffffffffffffffffffff82612eee565b612f338683612eee565b95508019841693508086168417925050509392505050565b5f819050919050565b5f612f6e612f69612f6484612267565b612f4b565b612267565b9050919050565b5f819050919050565b612f8783612f54565b612f9b612f9382612f75565b848454612efa565b825550505050565b5f90565b612faf612fa3565b612fba818484612f7e565b505050565b5b81811015612fdd57612fd25f82612fa7565b600181019050612fc0565b5050565b601f82111561302257612ff381612ecd565b612ffc84612edf565b8101602085101561300b578190505b61301f61301785612edf565b830182612fbf565b50505b505050565b5f82821c905092915050565b5f6130425f1984600802613027565b1980831691505092915050565b5f61305a8383613033565b9150826002028217905092915050565b613073826122f4565b67ffffffffffffffff81111561308c5761308b61203d565b5b6130968254612e9d565b6130a1828285612fe1565b5f60209050601f8311600181146130d2575f84156130c0578287015190505b6130ca858261304f565b865550613131565b601f1984166130e086612ecd565b5f5b82811015613107578489015182556001820191506020850194506020810190506130e2565b868310156131245784890151613120601f891682613033565b8355505b6001600288020188555050505b505050505050565b7f53747564656e74206e6f7420666f756e640000000000000000000000000000005f82015250565b5f61316d6011836122fe565b915061317882613139565b602082019050919050565b5f6020820190508181035f83015261319a81613161565b9050919050565b7f416c72656164792069737375656420616e64206e6f742072656a6563746564005f82015250565b5f6131d5601f836122fe565b91506131e0826131a1565b602082019050919050565b5f6020820190508181035f830152613202816131c9565b9050919050565b7f446567726565206e6f74206973737565642079657400000000000000000000005f82015250565b5f61323d6015836122fe565b915061324882613209565b602082019050919050565b5f6020820190508181035f83015261326a81613231565b905091905056fea26469706673582212208724850d7094c7f076bea745d737a682b92551bb13e961cec217241107cbf44d64736f6c63430008140033",
  "immutableReferences": {},
  "source": "// SPDX-License-Identifier: UNLICENSED\r\npragma solidity ^0.8.20;\r\n\r\ncontract DegreeSystem {\r\n    struct Fee {\r\n        uint8 semester;\r\n        bool paid;\r\n    }\r\n\r\n    struct Attendance {\r\n        string courseId;\r\n        string status; // \"present\", \"absent\", \"leave\"\r\n        uint256 timestamp;\r\n    }\r\n\r\n    struct Grade {\r\n        string courseId;\r\n        uint16 totalMarks;\r\n        uint16 obtainedMarks;\r\n        uint8 creditHours;\r\n        string grade;\r\n        uint8 qualityPoints;\r\n    }\r\n\r\n    struct Degree {\r\n        bool issued;\r\n        string pdfHash;\r\n        string issuedOn;\r\n        string vcSignature;\r\n        string govSignature;\r\n        bool rejected;\r\n    }\r\n\r\n    struct Student {\r\n        string encryptedData;\r\n        bool exists;\r\n    }\r\n\r\n    mapping(string => Student) public students;\r\n    mapping(string => Fee[]) public studentFees;\r\n    mapping(string => Attendance[]) public studentAttendance;\r\n    mapping(string => Grade[]) public studentGrades;\r\n    mapping(string => Degree) public issuedDegrees;\r\n\r\n    // Degree hash verification mapping\r\n    mapping(string => bytes32) private degreeHashes;\r\n\r\n    address public admin;\r\n    string public currentVCSignature;\r\n    string public currentGovSignature;\r\n\r\n    modifier onlyAdmin() {\r\n        require(msg.sender == admin, \"Only admin allowed\");\r\n        _;\r\n    }\r\n\r\n    constructor() {\r\n        admin = msg.sender;\r\n    }\r\n\r\n    // Student Registration\r\n    function registerStudent(string memory studentDID, string memory encryptedData) public onlyAdmin {\r\n        require(!students[studentDID].exists, \"Already registered\");\r\n        students[studentDID] = Student(encryptedData, true);\r\n    }\r\n\r\n    // Fee Recording\r\n    function recordFee(string memory studentDID, uint8 semester) public onlyAdmin {\r\n        studentFees[studentDID].push(Fee(semester, true));\r\n    }\r\n\r\n    // Attendance Marking\r\n    function markAttendance(string memory studentDID, string memory courseId, string memory status) public onlyAdmin {\r\n        studentAttendance[studentDID].push(Attendance(courseId, status, block.timestamp));\r\n    }\r\n\r\n    // Grade Submission\r\n    function submitGrade(\r\n        string memory studentDID,\r\n        string memory courseId,\r\n        uint16 totalMarks,\r\n        uint16 obtainedMarks,\r\n        uint8 creditHours,\r\n        string memory grade,\r\n        uint8 qualityPoints\r\n    ) public onlyAdmin {\r\n        studentGrades[studentDID].push(Grade(courseId, totalMarks, obtainedMarks, creditHours, grade, qualityPoints));\r\n    }\r\n\r\n    // Signatures Update\r\n    function storeSignatures(string memory vc, string memory gov) public onlyAdmin {\r\n        currentVCSignature = vc;\r\n        currentGovSignature = gov;\r\n    }\r\n\r\n    // Degree Rejection\r\n    function rejectDegree(string memory studentDID) public onlyAdmin {\r\n        require(issuedDegrees[studentDID].issued, \"Degree not issued yet\");\r\n        issuedDegrees[studentDID].rejected = true;\r\n        issuedDegrees[studentDID].issued = false;\r\n    }\r\n\r\n    // Degree Issuance\r\n    function issueDegree(string memory studentDID, string memory pdfHash, string memory date) public onlyAdmin {\r\n        require(students[studentDID].exists, \"Student not found\");\r\n        require(!issuedDegrees[studentDID].issued || issuedDegrees[studentDID].rejected, \"Already issued and not rejected\");\r\n\r\n        issuedDegrees[studentDID] = Degree({\r\n            issued: true,\r\n            pdfHash: pdfHash,\r\n            issuedOn: date,\r\n            vcSignature: currentVCSignature,\r\n            govSignature: currentGovSignature,\r\n            rejected: false\r\n        });\r\n    }\r\n\r\n    // Verification Hash Storage\r\n    function storeDegreeHash(string memory studentDID, bytes32 degreeHash) public onlyAdmin {\r\n        degreeHashes[studentDID] = degreeHash;\r\n    }\r\n\r\n    // Verification Hash Retrieval\r\n    function getDegreeHash(string memory studentDID) public view returns (bytes32) {\r\n        return degreeHashes[studentDID];\r\n    }\r\n\r\n    // Full Student Status\r\n    function getStudentStatus(string memory studentDID) public view returns (\r\n        string memory,\r\n        bool,\r\n        Fee[] memory,\r\n        Attendance[] memory,\r\n        Grade[] memory,\r\n        Degree memory,\r\n        bytes32\r\n    ) {\r\n        return (\r\n            students[studentDID].encryptedData,\r\n            students[studentDID].exists,\r\n            studentFees[studentDID],\r\n            studentAttendance[studentDID],\r\n            studentGrades[studentDID],\r\n            issuedDegrees[studentDID],\r\n            degreeHashes[studentDID]\r\n        );\r\n    }\r\n}\r\n",
  "sourcePath": "C:\\Users\\Maryam\\Documents\\DDIS\\backend\\blockchain\\contracts\\DegreeSystem.sol",
  "compiler": {
    "name": "solc",
    "version": "0.8.20+commit.a1b79de6.Emscripten.clang"
  },
  "schemaVersion": "3.4.16",
  "updatedAt": "2025-05-29T22:10:25.095Z",
  "networkType": "ethereum",
  "devdoc": {
    "kind": "dev",
    "methods": {},
    "version": 1
  },
  "userdoc": {
    "kind": "user",
    "methods": {},
    "version": 1
  }
}