{
  "contractName": "DegreeSystem",
  "abi": [
    {
      "inputs": [],
      "stateMutability": "nonpayable",
      "type": "constructor"
    },
    {
      "anonymous": false,
      "inputs": [
        {
          "indexed": true,
          "internalType": "string",
          "name": "studentDID",
          "type": "string"
        },
        {
          "indexed": false,
          "internalType": "string",
          "name": "pdfCID",
          "type": "string"
        }
      ],
      "name": "DegreeIssued",
      "type": "event"
    },
    {
      "anonymous": false,
      "inputs": [
        {
          "indexed": true,
          "internalType": "string",
          "name": "studentDID",
          "type": "string"
        }
      ],
      "name": "DegreeRejected",
      "type": "event"
    },
    {
      "anonymous": false,
      "inputs": [
        {
          "indexed": false,
          "internalType": "string",
          "name": "vcSignature",
          "type": "string"
        }
      ],
      "name": "VCSignatureUpdated",
      "type": "event"
    },
    {
      "inputs": [],
      "name": "admin",
      "outputs": [
        {
          "internalType": "address",
          "name": "",
          "type": "address"
        }
      ],
      "stateMutability": "view",
      "type": "function",
      "constant": true
    },
    {
      "inputs": [],
      "name": "currentVCSignature",
      "outputs": [
        {
          "internalType": "string",
          "name": "",
          "type": "string"
        }
      ],
      "stateMutability": "view",
      "type": "function",
      "constant": true
    },
    {
      "inputs": [
        {
          "internalType": "string",
          "name": "vc",
          "type": "string"
        }
      ],
      "name": "storeVCSignature",
      "outputs": [],
      "stateMutability": "nonpayable",
      "type": "function"
    },
    {
      "inputs": [
        {
          "internalType": "string",
          "name": "studentDID",
          "type": "string"
        },
        {
          "internalType": "string",
          "name": "pdfCID",
          "type": "string"
        },
        {
          "internalType": "string",
          "name": "date",
          "type": "string"
        }
      ],
      "name": "issueDegree",
      "outputs": [],
      "stateMutability": "nonpayable",
      "type": "function"
    },
    {
      "inputs": [
        {
          "internalType": "string",
          "name": "studentDID",
          "type": "string"
        }
      ],
      "name": "rejectDegree",
      "outputs": [],
      "stateMutability": "nonpayable",
      "type": "function"
    },
    {
      "inputs": [
        {
          "internalType": "string",
          "name": "studentDID",
          "type": "string"
        }
      ],
      "name": "getDegreeHash",
      "outputs": [
        {
          "internalType": "bytes32",
          "name": "",
          "type": "bytes32"
        }
      ],
      "stateMutability": "view",
      "type": "function",
      "constant": true
    },
    {
      "inputs": [
        {
          "internalType": "string",
          "name": "studentDID",
          "type": "string"
        }
      ],
      "name": "getDegreeInfo",
      "outputs": [
        {
          "components": [
            {
              "internalType": "bool",
              "name": "issued",
              "type": "bool"
            },
            {
              "internalType": "string",
              "name": "pdfHash",
              "type": "string"
            },
            {
              "internalType": "string",
              "name": "issuedOn",
              "type": "string"
            },
            {
              "internalType": "string",
              "name": "vcSignature",
              "type": "string"
            },
            {
              "internalType": "bool",
              "name": "rejected",
              "type": "bool"
            }
          ],
          "internalType": "struct DegreeSystem.Degree",
          "name": "degree",
          "type": "tuple"
        },
        {
          "internalType": "bytes32",
          "name": "degreeHash",
          "type": "bytes32"
        }
      ],
      "stateMutability": "view",
      "type": "function",
      "constant": true
    }
  ],
  "bytecode": "0x608060405234801561000f575f80fd5b503360025f6101000a81548173ffffffffffffffffffffffffffffffffffffffff021916908373ffffffffffffffffffffffffffffffffffffffff16021790555061148f8061005d5f395ff3fe608060405234801561000f575f80fd5b506004361061007b575f3560e01c8063b36f441111610059578063b36f4411146100ea578063d333afcc1461011a578063d757c5c014610136578063f851a440146101525761007b565b806313d3894a1461007f5780637bde7a031461009b578063986520d1146100cc575b5f80fd5b61009960048036038101906100949190610b1e565b610170565b005b6100b560048036038101906100b09190610b1e565b61024e565b6040516100c3929190610ca6565b60405180910390f35b6100d4610490565b6040516100e19190610d1c565b60405180910390f35b61010460048036038101906100ff9190610b1e565b61051c565b6040516101119190610d3c565b60405180910390f35b610134600480360381019061012f9190610d55565b610546565b005b610150600480360381019061014b9190610b1e565b6108e0565b005b61015a610a5f565b6040516101679190610e44565b60405180910390f35b60025f9054906101000a900473ffffffffffffffffffffffffffffffffffffffff1673ffffffffffffffffffffffffffffffffffffffff163373ffffffffffffffffffffffffffffffffffffffff16146101ff576040517f08c379a00000000000000000000000000000000000000000000000000000000081526004016101f690610ea7565b60405180910390fd5b8181600391826102109291906110ff565b507f947c55dfa570e4396c69ad4f9342f445e608c3eddbacf64ef366c9d0d1cc70388282604051610242929190611206565b60405180910390a15050565b610256610a84565b5f808484604051610268929190611256565b90815260200160405180910390206040518060a00160405290815f82015f9054906101000a900460ff161515151581526020016001820180546102aa90610f29565b80601f01602080910402602001604051908101604052809291908181526020018280546102d690610f29565b80156103215780601f106102f857610100808354040283529160200191610321565b820191905f5260205f20905b81548152906001019060200180831161030457829003601f168201915b5050505050815260200160028201805461033a90610f29565b80601f016020809104026020016040519081016040528092919081815260200182805461036690610f29565b80156103b15780601f10610388576101008083540402835291602001916103b1565b820191905f5260205f20905b81548152906001019060200180831161039457829003601f168201915b505050505081526020016003820180546103ca90610f29565b80601f01602080910402602001604051908101604052809291908181526020018280546103f690610f29565b80156104415780601f1061041857610100808354040283529160200191610441565b820191905f5260205f20905b81548152906001019060200180831161042457829003601f168201915b50505050508152602001600482015f9054906101000a900460ff161515151581525050915060018484604051610478929190611256565b90815260200160405180910390205490509250929050565b6003805461049d90610f29565b80601f01602080910402602001604051908101604052809291908181526020018280546104c990610f29565b80156105145780601f106104eb57610100808354040283529160200191610514565b820191905f5260205f20905b8154815290600101906020018083116104f757829003601f168201915b505050505081565b5f6001838360405161052f929190611256565b908152602001604051809103902054905092915050565b60025f9054906101000a900473ffffffffffffffffffffffffffffffffffffffff1673ffffffffffffffffffffffffffffffffffffffff163373ffffffffffffffffffffffffffffffffffffffff16146105d5576040517f08c379a00000000000000000000000000000000000000000000000000000000081526004016105cc90610ea7565b60405180910390fd5b5f8087876040516105e7929190611256565b90815260200160405180910390209050805f015f9054906101000a900460ff1615806106205750806004015f9054906101000a900460ff165b61065f576040517f08c379a0000000000000000000000000000000000000000000000000000000008152600401610656906112de565b60405180910390fd5b6040518060a0016040528060011515815260200186868080601f0160208091040260200160405190810160405280939291908181526020018383808284375f81840152601f19601f82011690508083019250505050505050815260200184848080601f0160208091040260200160405190810160405280939291908181526020018383808284375f81840152601f19601f8201169050808301925050505050505081526020016003805461071290610f29565b80601f016020809104026020016040519081016040528092919081815260200182805461073e90610f29565b80156107895780601f1061076057610100808354040283529160200191610789565b820191905f5260205f20905b81548152906001019060200180831161076c57829003601f168201915b505050505081526020015f15158152505f88886040516107aa929190611256565b90815260200160405180910390205f820151815f015f6101000a81548160ff02191690831515021790555060208201518160010190816107ea91906112fc565b50604082015181600201908161080091906112fc565b50606082015181600301908161081691906112fc565b506080820151816004015f6101000a81548160ff021916908315150217905550905050848460405160200161084c929190611256565b6040516020818303038152906040528051906020012060018888604051610874929190611256565b9081526020016040518091039020819055508686604051610896929190611256565b60405180910390207f787240d13290b082f0dfe26c47beff811cc8cbeebd9debf2451d8d1b57d3eea186866040516108cf929190611206565b60405180910390a250505050505050565b60025f9054906101000a900473ffffffffffffffffffffffffffffffffffffffff1673ffffffffffffffffffffffffffffffffffffffff163373ffffffffffffffffffffffffffffffffffffffff161461096f576040517f08c379a000000000000000000000000000000000000000000000000000000000815260040161096690610ea7565b60405180910390fd5b5f808383604051610981929190611256565b90815260200160405180910390209050805f015f9054906101000a900460ff166109e0576040517f08c379a00000000000000000000000000000000000000000000000000000000081526004016109d79061143b565b60405180910390fd5b6001816004015f6101000a81548160ff0219169083151502179055505f815f015f6101000a81548160ff0219169083151502179055508282604051610a26929190611256565b60405180910390207f1672ba0adc24f32d4791f6b6abdfa8ca8d791ff6d95b4a4fdc87558e4a5c61fc60405160405180910390a2505050565b60025f9054906101000a900473ffffffffffffffffffffffffffffffffffffffff1681565b6040518060a001604052805f151581526020016060815260200160608152602001606081526020015f151581525090565b5f80fd5b5f80fd5b5f80fd5b5f80fd5b5f80fd5b5f8083601f840112610ade57610add610abd565b5b8235905067ffffffffffffffff811115610afb57610afa610ac1565b5b602083019150836001820283011115610b1757610b16610ac5565b5b9250929050565b5f8060208385031215610b3457610b33610ab5565b5b5f83013567ffffffffffffffff811115610b5157610b50610ab9565b5b610b5d85828601610ac9565b92509250509250929050565b5f8115159050919050565b610b7d81610b69565b82525050565b5f81519050919050565b5f82825260208201905092915050565b5f5b83811015610bba578082015181840152602081019050610b9f565b5f8484015250505050565b5f601f19601f8301169050919050565b5f610bdf82610b83565b610be98185610b8d565b9350610bf9818560208601610b9d565b610c0281610bc5565b840191505092915050565b5f60a083015f830151610c225f860182610b74565b5060208301518482036020860152610c3a8282610bd5565b91505060408301518482036040860152610c548282610bd5565b91505060608301518482036060860152610c6e8282610bd5565b9150506080830151610c836080860182610b74565b508091505092915050565b5f819050919050565b610ca081610c8e565b82525050565b5f6040820190508181035f830152610cbe8185610c0d565b9050610ccd6020830184610c97565b9392505050565b5f82825260208201905092915050565b5f610cee82610b83565b610cf88185610cd4565b9350610d08818560208601610b9d565b610d1181610bc5565b840191505092915050565b5f6020820190508181035f830152610d348184610ce4565b905092915050565b5f602082019050610d4f5f830184610c97565b92915050565b5f805f805f8060608789031215610d6f57610d6e610ab5565b5b5f87013567ffffffffffffffff811115610d8c57610d8b610ab9565b5b610d9889828a01610ac9565b9650965050602087013567ffffffffffffffff811115610dbb57610dba610ab9565b5b610dc789828a01610ac9565b9450945050604087013567ffffffffffffffff811115610dea57610de9610ab9565b5b610df689828a01610ac9565b92509250509295509295509295565b5f73ffffffffffffffffffffffffffffffffffffffff82169050919050565b5f610e2e82610e05565b9050919050565b610e3e81610e24565b82525050565b5f602082019050610e575f830184610e35565b92915050565b7f44656772656553797374656d3a204f6e6c792061646d696e20616c6c6f7765645f82015250565b5f610e91602083610cd4565b9150610e9c82610e5d565b602082019050919050565b5f6020820190508181035f830152610ebe81610e85565b9050919050565b5f82905092915050565b7f4e487b71000000000000000000000000000000000000000000000000000000005f52604160045260245ffd5b7f4e487b71000000000000000000000000000000000000000000000000000000005f52602260045260245ffd5b5f6002820490506001821680610f4057607f821691505b602082108103610f5357610f52610efc565b5b50919050565b5f819050815f5260205f209050919050565b5f6020601f8301049050919050565b5f82821b905092915050565b5f60088302610fb57fffffffffffffffffffffffffffffffffffffffffffffffffffffffffffffffff82610f7a565b610fbf8683610f7a565b95508019841693508086168417925050509392505050565b5f819050919050565b5f819050919050565b5f611003610ffe610ff984610fd7565b610fe0565b610fd7565b9050919050565b5f819050919050565b61101c83610fe9565b6110306110288261100a565b848454610f86565b825550505050565b5f90565b611044611038565b61104f818484611013565b505050565b5b81811015611072576110675f8261103c565b600181019050611055565b5050565b601f8211156110b75761108881610f59565b61109184610f6b565b810160208510156110a0578190505b6110b46110ac85610f6b565b830182611054565b50505b505050565b5f82821c905092915050565b5f6110d75f19846008026110bc565b1980831691505092915050565b5f6110ef83836110c8565b9150826002028217905092915050565b6111098383610ec5565b67ffffffffffffffff81111561112257611121610ecf565b5b61112c8254610f29565b611137828285611076565b5f601f831160018114611164575f8415611152578287013590505b61115c85826110e4565b8655506111c3565b601f19841661117286610f59565b5f5b8281101561119957848901358255600182019150602085019450602081019050611174565b868310156111b657848901356111b2601f8916826110c8565b8355505b6001600288020188555050505b50505050505050565b828183375f83830152505050565b5f6111e58385610cd4565b93506111f28385846111cc565b6111fb83610bc5565b840190509392505050565b5f6020820190508181035f83015261121f8184866111da565b90509392505050565b5f81905092915050565b5f61123d8385611228565b935061124a8385846111cc565b82840190509392505050565b5f611262828486611232565b91508190509392505050565b7f44656772656553797374656d3a2044656772656520616c7265616479206973735f8201527f75656420616e64206e6f742072656a6563746564000000000000000000000000602082015250565b5f6112c8603483610cd4565b91506112d38261126e565b604082019050919050565b5f6020820190508181035f8301526112f5816112bc565b9050919050565b61130582610b83565b67ffffffffffffffff81111561131e5761131d610ecf565b5b6113288254610f29565b611333828285611076565b5f60209050601f831160018114611364575f8415611352578287015190505b61135c85826110e4565b8655506113c3565b601f19841661137286610f59565b5f5b8281101561139957848901518255600182019150602085019450602081019050611374565b868310156113b657848901516113b2601f8916826110c8565b8355505b6001600288020188555050505b505050505050565b7f44656772656553797374656d3a20446567726565206e6f7420697373756564205f8201527f7965740000000000000000000000000000000000000000000000000000000000602082015250565b5f611425602383610cd4565b9150611430826113cb565b604082019050919050565b5f6020820190508181035f83015261145281611419565b905091905056fea264697066735822122011fbfa6f99735f75e0f129a1be3c7454bd3bb01c57d897f954d71a931ff1c66c64736f6c63430008140033",
  "immutableReferences": {},
  "source": "// SPDX-License-Identifier: UNLICENSED\r\npragma solidity ^0.8.20;\r\n\r\ncontract DegreeSystem {\r\n    struct Degree {\r\n        bool issued;\r\n        string pdfHash;     // IPFS CID of the PDF\r\n        string issuedOn;\r\n        string vcSignature;\r\n        bool rejected;\r\n    }\r\n\r\n    mapping(string => Degree) private issuedDegrees;\r\n    mapping(string => bytes32) private degreeHashes; // keccak256(pdfCID)\r\n\r\n    address public admin;\r\n    string public currentVCSignature;\r\n\r\n    modifier onlyAdmin() {\r\n        require(msg.sender == admin, \"DegreeSystem: Only admin allowed\");\r\n        _;\r\n    }\r\n\r\n    event DegreeIssued(string indexed studentDID, string pdfCID);\r\n    event DegreeRejected(string indexed studentDID);\r\n    event VCSignatureUpdated(string vcSignature);\r\n\r\n    constructor() {\r\n        admin = msg.sender;\r\n    }\r\n\r\n    // Update current VC signature\r\n    function storeVCSignature(string calldata vc) external onlyAdmin {\r\n        currentVCSignature = vc;\r\n        emit VCSignatureUpdated(vc);\r\n    }\r\n\r\n    // Issue a new degree and store CID + hash\r\n    function issueDegree(\r\n        string calldata studentDID,\r\n        string calldata pdfCID,\r\n        string calldata date\r\n    ) external onlyAdmin {\r\n        Degree storage degree = issuedDegrees[studentDID];\r\n        require(!degree.issued || degree.rejected, \"DegreeSystem: Degree already issued and not rejected\");\r\n\r\n        issuedDegrees[studentDID] = Degree({\r\n            issued: true,\r\n            pdfHash: pdfCID,\r\n            issuedOn: date,\r\n            vcSignature: currentVCSignature,\r\n            rejected: false\r\n        });\r\n\r\n        degreeHashes[studentDID] = keccak256(abi.encodePacked(pdfCID));\r\n        emit DegreeIssued(studentDID, pdfCID);\r\n    }\r\n\r\n    // Reject a previously issued degree\r\n    function rejectDegree(string calldata studentDID) external onlyAdmin {\r\n        Degree storage degree = issuedDegrees[studentDID];\r\n        require(degree.issued, \"DegreeSystem: Degree not issued yet\");\r\n\r\n        degree.rejected = true;\r\n        degree.issued = false;\r\n        emit DegreeRejected(studentDID);\r\n    }\r\n\r\n    // Return the hash of the CID\r\n    function getDegreeHash(string calldata studentDID) external view returns (bytes32) {\r\n        return degreeHashes[studentDID];\r\n    }\r\n\r\n    // Return degree details for frontend\r\n    function getDegreeInfo(string calldata studentDID) external view returns (\r\n        Degree memory degree,\r\n        bytes32 degreeHash\r\n    ) {\r\n        degree = issuedDegrees[studentDID];\r\n        degreeHash = degreeHashes[studentDID];\r\n    }\r\n}\r\n",
  "sourcePath": "C:\\Users\\Maryam\\Documents\\DDIS\\backend\\blockchain\\contracts\\DegreeSystem.sol",
  "compiler": {
    "name": "solc",
    "version": "0.8.20+commit.a1b79de6.Emscripten.clang"
  },
  "schemaVersion": "3.4.16",
  "updatedAt": "2025-05-30T23:22:39.221Z",
  "networkType": "ethereum",
  "devdoc": {
    "kind": "dev",
    "methods": {},
    "version": 1
  },
  "userdoc": {
    "kind": "user",
    "methods": {},
    "version": 1
  }
}